{
  "_format": "hh-sol-artifact-1",
  "contractName": "SaleCampaign",
  "sourceName": "contracts/SaleCampaign.sol",
  "abi": [
    {
      "inputs": [
        {
          "internalType": "address",
          "name": "tokenAddress",
          "type": "address"
        },
        {
          "internalType": "address",
          "name": "spender",
          "type": "address"
        }
      ],
      "stateMutability": "nonpayable",
      "type": "constructor"
    },
    {
      "inputs": [],
      "name": "DURATION",
      "outputs": [
        {
          "internalType": "uint256",
          "name": "",
          "type": "uint256"
        }
      ],
      "stateMutability": "view",
      "type": "function"
    },
    {
      "inputs": [],
      "name": "PRICE_PHASE1",
      "outputs": [
        {
          "internalType": "uint256",
          "name": "",
          "type": "uint256"
        }
      ],
      "stateMutability": "view",
      "type": "function"
    },
    {
      "inputs": [],
      "name": "PRICE_PHASE2",
      "outputs": [
        {
          "internalType": "uint256",
          "name": "",
          "type": "uint256"
        }
      ],
      "stateMutability": "view",
      "type": "function"
    },
    {
      "inputs": [],
      "name": "TOTAL_SALE_CAP",
      "outputs": [
        {
          "internalType": "uint256",
          "name": "",
          "type": "uint256"
        }
      ],
      "stateMutability": "view",
      "type": "function"
    },
    {
      "inputs": [
        {
          "internalType": "uint256",
          "name": "amount",
          "type": "uint256"
        }
      ],
      "name": "buyTokens",
      "outputs": [],
      "stateMutability": "payable",
      "type": "function"
    },
    {
      "inputs": [
        {
          "internalType": "uint256",
          "name": "amount",
          "type": "uint256"
        }
      ],
      "name": "getTokenCost",
      "outputs": [
        {
          "internalType": "uint256",
          "name": "",
          "type": "uint256"
        }
      ],
      "stateMutability": "view",
      "type": "function"
    },
    {
      "inputs": [],
      "name": "owner",
      "outputs": [
        {
          "internalType": "address payable",
          "name": "",
          "type": "address"
        }
      ],
      "stateMutability": "view",
      "type": "function"
    },
    {
      "inputs": [],
      "name": "startTime",
      "outputs": [
        {
          "internalType": "uint256",
          "name": "",
          "type": "uint256"
        }
      ],
      "stateMutability": "view",
      "type": "function"
    },
    {
      "inputs": [],
      "name": "token",
      "outputs": [
        {
          "internalType": "contract TrungToken",
          "name": "",
          "type": "address"
        }
      ],
      "stateMutability": "view",
      "type": "function"
    },
    {
      "inputs": [],
      "name": "tokensSold",
      "outputs": [
        {
          "internalType": "uint256",
          "name": "",
          "type": "uint256"
        }
      ],
      "stateMutability": "view",
      "type": "function"
    }
  ],
  "bytecode": "0x608060405234801561001057600080fd5b50604051610d5b380380610d5b83398181016040528101906100329190610124565b816000806101000a81548173ffffffffffffffffffffffffffffffffffffffff021916908373ffffffffffffffffffffffffffffffffffffffff16021790555080600160006101000a81548173ffffffffffffffffffffffffffffffffffffffff021916908373ffffffffffffffffffffffffffffffffffffffff160217905550426002819055505050610164565b600080fd5b600073ffffffffffffffffffffffffffffffffffffffff82169050919050565b60006100f1826100c6565b9050919050565b610101816100e6565b811461010c57600080fd5b50565b60008151905061011e816100f8565b92915050565b6000806040838503121561013b5761013a6100c1565b5b60006101498582860161010f565b925050602061015a8582860161010f565b9150509250929050565b610be8806101736000396000f3fe6080604052600436106100915760003560e01c806378e979251161005957806378e97925146101705780637912a8b71461019b5780638da5cb5b146101c6578063a9591d45146101f1578063fc0c546a1461021c57610091565b80631be05289146100965780631ce06944146100c15780633610724e146100fe578063518ab2a81461011a578063665d94bb14610145575b600080fd5b3480156100a257600080fd5b506100ab610247565b6040516100b891906106ae565b60405180910390f35b3480156100cd57600080fd5b506100e860048036038101906100e391906106fa565b61024e565b6040516100f591906106ae565b60405180910390f35b610118600480360381019061011391906106fa565b61033c565b005b34801561012657600080fd5b5061012f610619565b60405161013c91906106ae565b60405180910390f35b34801561015157600080fd5b5061015a61061f565b60405161016791906106ae565b60405180910390f35b34801561017c57600080fd5b5061018561062b565b60405161019291906106ae565b60405180910390f35b3480156101a757600080fd5b506101b0610631565b6040516101bd91906106ae565b60405180910390f35b3480156101d257600080fd5b506101db61063f565b6040516101e89190610768565b60405180910390f35b3480156101fd57600080fd5b50610206610665565b60405161021391906106ae565b60405180910390f35b34801561022857600080fd5b50610231610671565b60405161023e91906107e2565b60405180910390f35b62278d0081565b6000808211610292576040517f08c379a00000000000000000000000000000000000000000000000000000000081526004016102899061085a565b60405180910390fd5b600060035468878678326eac900000116102ad5760006102c5565b60035468878678326eac9000006102c491906108a9565b5b90508083116102ea57674563918244f40000836102e291906108dd565b915050610337565b6000819050600082856102fd91906108a9565b9050678ac7230489e800008161031391906108dd565b674563918244f400008361032791906108dd565b610331919061091f565b93505050505b919050565b62278d0060025461034d919061091f565b42111561038f576040517f08c379a00000000000000000000000000000000000000000000000000000000081526004016103869061099f565b60405180910390fd5b69010f0cf064dd59200000816003546103a8919061091f565b11156103e9576040517f08c379a00000000000000000000000000000000000000000000000000000000081526004016103e090610a0b565b60405180910390fd5b60006103f48261024e565b905080341015610439576040517f08c379a000000000000000000000000000000000000000000000000000000000815260040161043090610a77565b60405180910390fd5b816003600082825461044b919061091f565b9250508190555060008054906101000a900473ffffffffffffffffffffffffffffffffffffffff1673ffffffffffffffffffffffffffffffffffffffff1663a9059cbb600160009054906101000a900473ffffffffffffffffffffffffffffffffffffffff16846040518363ffffffff1660e01b81526004016104cf929190610ab8565b6020604051808303816000875af11580156104ee573d6000803e3d6000fd5b505050506040513d601f19601f820116820180604052508101906105129190610b19565b610551576040517f08c379a000000000000000000000000000000000000000000000000000000000815260040161054890610b92565b60405180910390fd5b803411156105ac573373ffffffffffffffffffffffffffffffffffffffff166108fc823461057f91906108a9565b9081150290604051600060405180830381858888f193505050501580156105aa573d6000803e3d6000fd5b505b600160009054906101000a900473ffffffffffffffffffffffffffffffffffffffff1673ffffffffffffffffffffffffffffffffffffffff166108fc829081150290604051600060405180830381858888f19350505050158015610614573d6000803e3d6000fd5b505050565b60035481565b674563918244f4000081565b60025481565b69010f0cf064dd5920000081565b600160009054906101000a900473ffffffffffffffffffffffffffffffffffffffff1681565b678ac7230489e8000081565b60008054906101000a900473ffffffffffffffffffffffffffffffffffffffff1681565b6000819050919050565b6106a881610695565b82525050565b60006020820190506106c3600083018461069f565b92915050565b600080fd5b6106d781610695565b81146106e257600080fd5b50565b6000813590506106f4816106ce565b92915050565b6000602082840312156107105761070f6106c9565b5b600061071e848285016106e5565b91505092915050565b600073ffffffffffffffffffffffffffffffffffffffff82169050919050565b600061075282610727565b9050919050565b61076281610747565b82525050565b600060208201905061077d6000830184610759565b92915050565b6000819050919050565b60006107a86107a361079e84610727565b610783565b610727565b9050919050565b60006107ba8261078d565b9050919050565b60006107cc826107af565b9050919050565b6107dc816107c1565b82525050565b60006020820190506107f760008301846107d3565b92915050565b600082825260208201905092915050565b7f416d6f756e74206d757374206265203e20300000000000000000000000000000600082015250565b60006108446012836107fd565b915061084f8261080e565b602082019050919050565b6000602082019050818103600083015261087381610837565b9050919050565b7f4e487b7100000000000000000000000000000000000000000000000000000000600052601160045260246000fd5b60006108b482610695565b91506108bf83610695565b92508282039050818111156108d7576108d661087a565b5b92915050565b60006108e882610695565b91506108f383610695565b925082820261090181610695565b915082820484148315176109185761091761087a565b5b5092915050565b600061092a82610695565b915061093583610695565b925082820190508082111561094d5761094c61087a565b5b92915050565b7f53616c6520656e646564202874696d6529000000000000000000000000000000600082015250565b60006109896011836107fd565b915061099482610953565b602082019050919050565b600060208201905081810360008301526109b88161097c565b9050919050565b7f53616c6520656e64656420286361702900000000000000000000000000000000600082015250565b60006109f56010836107fd565b9150610a00826109bf565b602082019050919050565b60006020820190508181036000830152610a24816109e8565b9050919050565b7f496e73756666696369656e74204554482073656e740000000000000000000000600082015250565b6000610a616015836107fd565b9150610a6c82610a2b565b602082019050919050565b60006020820190508181036000830152610a9081610a54565b9050919050565b6000610aa2826107af565b9050919050565b610ab281610a97565b82525050565b6000604082019050610acd6000830185610aa9565b610ada602083018461069f565b9392505050565b60008115159050919050565b610af681610ae1565b8114610b0157600080fd5b50565b600081519050610b1381610aed565b92915050565b600060208284031215610b2f57610b2e6106c9565b5b6000610b3d84828501610b04565b91505092915050565b7f546f6b656e207472616e73666572206661696c65640000000000000000000000600082015250565b6000610b7c6015836107fd565b9150610b8782610b46565b602082019050919050565b60006020820190508181036000830152610bab81610b6f565b905091905056fea2646970667358221220624ddc2ef162335112dc6ee716b593ec55ce8c4d7ea978287c8bbd306eb483e464736f6c634300081c0033",
  "linkReferences": {},
  "deployedLinkReferences": {}
}